{
  "_format": "hh-sol-artifact-1",
  "contractName": "FinancialTransaction",
  "sourceName": "contracts/FinancialTransaction.sol",
  "abi": [
    {
      "inputs": [],
      "stateMutability": "nonpayable",
      "type": "constructor"
    },
    {
      "anonymous": false,
      "inputs": [
        {
          "indexed": true,
          "internalType": "address",
          "name": "from",
          "type": "address"
        },
        {
          "indexed": false,
          "internalType": "uint256",
          "name": "amount",
          "type": "uint256"
        }
      ],
      "name": "Deposit",
      "type": "event"
    },
    {
      "anonymous": false,
      "inputs": [
        {
          "indexed": true,
          "internalType": "address",
          "name": "from",
          "type": "address"
        },
        {
          "indexed": true,
          "internalType": "address",
          "name": "to",
          "type": "address"
        },
        {
          "indexed": false,
          "internalType": "uint256",
          "name": "amount",
          "type": "uint256"
        }
      ],
      "name": "TransactionExecuted",
      "type": "event"
    },
    {
      "inputs": [],
      "name": "deposit",
      "outputs": [],
      "stateMutability": "payable",
      "type": "function"
    },
    {
      "inputs": [],
      "name": "getBalance",
      "outputs": [
        {
          "internalType": "uint256",
          "name": "",
          "type": "uint256"
        }
      ],
      "stateMutability": "view",
      "type": "function"
    },
    {
      "inputs": [],
      "name": "owner",
      "outputs": [
        {
          "internalType": "address",
          "name": "",
          "type": "address"
        }
      ],
      "stateMutability": "view",
      "type": "function"
    },
    {
      "inputs": [
        {
          "internalType": "address payable",
          "name": "recipient",
          "type": "address"
        }
      ],
      "name": "sendINR",
      "outputs": [],
      "stateMutability": "payable",
      "type": "function"
    },
    {
      "inputs": [],
      "name": "transactionCount",
      "outputs": [
        {
          "internalType": "uint256",
          "name": "",
          "type": "uint256"
        }
      ],
      "stateMutability": "view",
      "type": "function"
    },
    {
      "inputs": [
        {
          "internalType": "uint256",
          "name": "amount",
          "type": "uint256"
        }
      ],
      "name": "withdraw",
      "outputs": [],
      "stateMutability": "nonpayable",
      "type": "function"
    }
  ],
  "bytecode": "0x608060405234801561001057600080fd5b50336000806101000a81548173ffffffffffffffffffffffffffffffffffffffff021916908373ffffffffffffffffffffffffffffffffffffffff160217905550610821806100606000396000f3fe6080604052600436106100555760003560e01c806312065fe01461005a5780632e1a7d4d146100855780638da5cb5b146100ae578063b77bf600146100d9578063d0e30db014610104578063d7c3257a1461010e575b600080fd5b34801561006657600080fd5b5061006f61012a565b60405161007c919061044d565b60405180910390f35b34801561009157600080fd5b506100ac60048036038101906100a79190610499565b610132565b005b3480156100ba57600080fd5b506100c361026d565b6040516100d09190610507565b60405180910390f35b3480156100e557600080fd5b506100ee610291565b6040516100fb919061044d565b60405180910390f35b61010c610297565b005b61012860048036038101906101239190610560565b61032a565b005b600047905090565b60008054906101000a900473ffffffffffffffffffffffffffffffffffffffff1673ffffffffffffffffffffffffffffffffffffffff163373ffffffffffffffffffffffffffffffffffffffff16146101c0576040517f08c379a00000000000000000000000000000000000000000000000000000000081526004016101b7906105ea565b60405180910390fd5b47811115610203576040517f08c379a00000000000000000000000000000000000000000000000000000000081526004016101fa90610656565b60405180910390fd5b60008054906101000a900473ffffffffffffffffffffffffffffffffffffffff1673ffffffffffffffffffffffffffffffffffffffff166108fc829081150290604051600060405180830381858888f19350505050158015610269573d6000803e3d6000fd5b5050565b60008054906101000a900473ffffffffffffffffffffffffffffffffffffffff1681565b60015481565b600034116102da576040517f08c379a00000000000000000000000000000000000000000000000000000000081526004016102d1906106e8565b60405180910390fd5b3373ffffffffffffffffffffffffffffffffffffffff167fe1fffcc4923d04b559f4d29a8bfc6cda04eb5b0d3c460751c2402c5c5cc9109c34604051610320919061044d565b60405180910390a2565b6000341161036d576040517f08c379a000000000000000000000000000000000000000000000000000000000815260040161036490610754565b60405180910390fd5b8073ffffffffffffffffffffffffffffffffffffffff166108fc349081150290604051600060405180830381858888f193505050501580156103b3573d6000803e3d6000fd5b50600160008154809291906103c7906107a3565b91905055508073ffffffffffffffffffffffffffffffffffffffff163373ffffffffffffffffffffffffffffffffffffffff167f508f3afa87f72dce865a2321107666b28ac822c23a8c0555fbeb3424cf3de56334604051610429919061044d565b60405180910390a350565b6000819050919050565b61044781610434565b82525050565b6000602082019050610462600083018461043e565b92915050565b600080fd5b61047681610434565b811461048157600080fd5b50565b6000813590506104938161046d565b92915050565b6000602082840312156104af576104ae610468565b5b60006104bd84828501610484565b91505092915050565b600073ffffffffffffffffffffffffffffffffffffffff82169050919050565b60006104f1826104c6565b9050919050565b610501816104e6565b82525050565b600060208201905061051c60008301846104f8565b92915050565b600061052d826104c6565b9050919050565b61053d81610522565b811461054857600080fd5b50565b60008135905061055a81610534565b92915050565b60006020828403121561057657610575610468565b5b60006105848482850161054b565b91505092915050565b600082825260208201905092915050565b7f4f6e6c79206f776e65722063616e207769746864726177000000000000000000600082015250565b60006105d460178361058d565b91506105df8261059e565b602082019050919050565b60006020820190508181036000830152610603816105c7565b9050919050565b7f496e73756666696369656e742062616c616e6365000000000000000000000000600082015250565b600061064060148361058d565b915061064b8261060a565b602082019050919050565b6000602082019050818103600083015261066f81610633565b9050919050565b7f4465706f73697420616d6f756e74206d7573742062652067726561746572207460008201527f68616e207a65726f000000000000000000000000000000000000000000000000602082015250565b60006106d260288361058d565b91506106dd82610676565b604082019050919050565b60006020820190508181036000830152610701816106c5565b9050919050565b7f416d6f756e74206d7573742062652067726561746572207468616e207a65726f600082015250565b600061073e60208361058d565b915061074982610708565b602082019050919050565b6000602082019050818103600083015261076d81610731565b9050919050565b7f4e487b7100000000000000000000000000000000000000000000000000000000600052601160045260246000fd5b60006107ae82610434565b91507fffffffffffffffffffffffffffffffffffffffffffffffffffffffffffffffff82036107e0576107df610774565b5b60018201905091905056fea2646970667358221220d4ad25a9c17bfb3d155ab3bbe49504e975a61074d789efc37f54d2006cbc703e64736f6c63430008120033",
  "linkReferences": {},
  "deployedLinkReferences": {}
}